{
  "contractName": "VirtualToken",
  "abi": [
    {
      "inputs": [
        {
          "internalType": "string",
          "name": "name_",
          "type": "string"
        },
        {
          "internalType": "string",
          "name": "symbol_",
          "type": "string"
        }
      ],
      "stateMutability": "nonpayable",
      "type": "constructor"
    },
    {
      "anonymous": false,
      "inputs": [
        {
          "indexed": true,
          "internalType": "address",
          "name": "owner",
          "type": "address"
        },
        {
          "indexed": true,
          "internalType": "address",
          "name": "spender",
          "type": "address"
        },
        {
          "indexed": false,
          "internalType": "uint256",
          "name": "value",
          "type": "uint256"
        }
      ],
      "name": "Approval",
      "type": "event"
    },
    {
      "anonymous": false,
      "inputs": [
        {
          "indexed": false,
          "internalType": "uint256",
          "name": "newA",
          "type": "uint256"
        }
      ],
      "name": "NewMultiplierEvent",
      "type": "event"
    },
    {
      "anonymous": false,
      "inputs": [
        {
          "indexed": false,
          "internalType": "uint256",
          "name": "amt",
          "type": "uint256"
        },
        {
          "indexed": false,
          "internalType": "address",
          "name": "staker",
          "type": "address"
        },
        {
          "indexed": false,
          "internalType": "uint256",
          "name": "newA",
          "type": "uint256"
        }
      ],
      "name": "StakeEvent",
      "type": "event"
    },
    {
      "anonymous": false,
      "inputs": [
        {
          "indexed": true,
          "internalType": "address",
          "name": "from",
          "type": "address"
        },
        {
          "indexed": true,
          "internalType": "address",
          "name": "to",
          "type": "address"
        },
        {
          "indexed": false,
          "internalType": "uint256",
          "name": "value",
          "type": "uint256"
        }
      ],
      "name": "Transfer",
      "type": "event"
    },
    {
      "anonymous": false,
      "inputs": [
        {
          "indexed": false,
          "internalType": "uint256",
          "name": "amt",
          "type": "uint256"
        },
        {
          "indexed": false,
          "internalType": "address",
          "name": "unstaker",
          "type": "address"
        },
        {
          "indexed": false,
          "internalType": "uint256",
          "name": "newA",
          "type": "uint256"
        }
      ],
      "name": "UnstakeEvent",
      "type": "event"
    },
    {
      "inputs": [
        {
          "internalType": "address",
          "name": "owner",
          "type": "address"
        },
        {
          "internalType": "address",
          "name": "spender",
          "type": "address"
        }
      ],
      "name": "allowance",
      "outputs": [
        {
          "internalType": "uint256",
          "name": "",
          "type": "uint256"
        }
      ],
      "stateMutability": "view",
      "type": "function"
    },
    {
      "inputs": [
        {
          "internalType": "address",
          "name": "spender",
          "type": "address"
        },
        {
          "internalType": "uint256",
          "name": "amount",
          "type": "uint256"
        }
      ],
      "name": "approve",
      "outputs": [
        {
          "internalType": "bool",
          "name": "",
          "type": "bool"
        }
      ],
      "stateMutability": "nonpayable",
      "type": "function"
    },
    {
      "inputs": [
        {
          "internalType": "address",
          "name": "account",
          "type": "address"
        }
      ],
      "name": "balanceOf",
      "outputs": [
        {
          "internalType": "uint256",
          "name": "",
          "type": "uint256"
        }
      ],
      "stateMutability": "view",
      "type": "function"
    },
    {
      "inputs": [],
      "name": "decimals",
      "outputs": [
        {
          "internalType": "uint8",
          "name": "",
          "type": "uint8"
        }
      ],
      "stateMutability": "view",
      "type": "function"
    },
    {
      "inputs": [
        {
          "internalType": "address",
          "name": "spender",
          "type": "address"
        },
        {
          "internalType": "uint256",
          "name": "subtractedValue",
          "type": "uint256"
        }
      ],
      "name": "decreaseAllowance",
      "outputs": [
        {
          "internalType": "bool",
          "name": "",
          "type": "bool"
        }
      ],
      "stateMutability": "nonpayable",
      "type": "function"
    },
    {
      "inputs": [
        {
          "internalType": "address",
          "name": "spender",
          "type": "address"
        },
        {
          "internalType": "uint256",
          "name": "addedValue",
          "type": "uint256"
        }
      ],
      "name": "increaseAllowance",
      "outputs": [
        {
          "internalType": "bool",
          "name": "",
          "type": "bool"
        }
      ],
      "stateMutability": "nonpayable",
      "type": "function"
    },
    {
      "inputs": [],
      "name": "name",
      "outputs": [
        {
          "internalType": "string",
          "name": "",
          "type": "string"
        }
      ],
      "stateMutability": "view",
      "type": "function"
    },
    {
      "inputs": [],
      "name": "owner",
      "outputs": [
        {
          "internalType": "address",
          "name": "",
          "type": "address"
        }
      ],
      "stateMutability": "view",
      "type": "function"
    },
    {
      "inputs": [],
      "name": "symbol",
      "outputs": [
        {
          "internalType": "string",
          "name": "",
          "type": "string"
        }
      ],
      "stateMutability": "view",
      "type": "function"
    },
    {
      "inputs": [],
      "name": "totalSupply",
      "outputs": [
        {
          "internalType": "uint256",
          "name": "",
          "type": "uint256"
        }
      ],
      "stateMutability": "view",
      "type": "function"
    },
    {
      "inputs": [
        {
          "internalType": "address",
          "name": "sender",
          "type": "address"
        },
        {
          "internalType": "address",
          "name": "recipient",
          "type": "address"
        },
        {
          "internalType": "uint256",
          "name": "amount",
          "type": "uint256"
        }
      ],
      "name": "transferFrom",
      "outputs": [
        {
          "internalType": "bool",
          "name": "",
          "type": "bool"
        }
      ],
      "stateMutability": "nonpayable",
      "type": "function"
    },
    {
      "inputs": [
        {
          "internalType": "address",
          "name": "act",
          "type": "address"
        }
      ],
      "name": "stakedBalanceOf",
      "outputs": [
        {
          "internalType": "uint256",
          "name": "",
          "type": "uint256"
        }
      ],
      "stateMutability": "view",
      "type": "function"
    },
    {
      "inputs": [
        {
          "internalType": "address",
          "name": "act",
          "type": "address"
        }
      ],
      "name": "stakedVirtualBalanceOf",
      "outputs": [
        {
          "internalType": "uint256",
          "name": "",
          "type": "uint256"
        }
      ],
      "stateMutability": "view",
      "type": "function"
    },
    {
      "inputs": [
        {
          "internalType": "uint256",
          "name": "_amt",
          "type": "uint256"
        }
      ],
      "name": "stake",
      "outputs": [
        {
          "internalType": "bool",
          "name": "",
          "type": "bool"
        }
      ],
      "stateMutability": "nonpayable",
      "type": "function"
    },
    {
      "inputs": [
        {
          "internalType": "uint256",
          "name": "_amt",
          "type": "uint256"
        }
      ],
      "name": "unstake",
      "outputs": [
        {
          "internalType": "bool",
          "name": "",
          "type": "bool"
        }
      ],
      "stateMutability": "nonpayable",
      "type": "function"
    },
    {
      "inputs": [
        {
          "internalType": "address",
          "name": "recipient",
          "type": "address"
        },
        {
          "internalType": "uint256",
          "name": "amount",
          "type": "uint256"
        }
      ],
      "name": "transfer",
      "outputs": [
        {
          "internalType": "bool",
          "name": "",
          "type": "bool"
        }
      ],
      "stateMutability": "nonpayable",
      "type": "function"
    },
    {
      "inputs": [],
      "name": "getTotalStakedBalance",
      "outputs": [
        {
          "internalType": "uint256",
          "name": "",
          "type": "uint256"
        }
      ],
      "stateMutability": "view",
      "type": "function"
    },
    {
      "inputs": [],
      "name": "getTotalVirtualStakeBalance",
      "outputs": [
        {
          "internalType": "uint256",
          "name": "",
          "type": "uint256"
        }
      ],
      "stateMutability": "view",
      "type": "function"
    },
    {
      "inputs": [],
      "name": "getMultiplier",
      "outputs": [
        {
          "internalType": "uint256",
          "name": "",
          "type": "uint256"
        }
      ],
      "stateMutability": "view",
      "type": "function"
    },
    {
      "inputs": [],
      "name": "getTokens",
      "outputs": [
        {
          "internalType": "bool",
          "name": "",
          "type": "bool"
        }
      ],
      "stateMutability": "nonpayable",
      "type": "function"
    },
    {
      "inputs": [],
      "name": "getOwner",
      "outputs": [
        {
          "internalType": "address",
          "name": "",
          "type": "address"
        }
      ],
      "stateMutability": "view",
      "type": "function"
    }
  ],
  "bytecode": "0x60806040523480156200001157600080fd5b5060405162002b0138038062002b018339818101604052810190620000379190620004cd565b818181600390805190602001906200005192919062000280565b5080600490805190602001906200006a92919062000280565b50505033600a60006101000a81548173ffffffffffffffffffffffffffffffffffffffff021916908373ffffffffffffffffffffffffffffffffffffffff160217905550670e043da617250000600681905550670e043da61725000060078190555060006008819055506000600981905550600060649050620000f43382620000fd60201b60201c565b505050620006fe565b600073ffffffffffffffffffffffffffffffffffffffff168273ffffffffffffffffffffffffffffffffffffffff16141562000170576040517f08c379a00000000000000000000000000000000000000000000000000000000081526004016200016790620005b3565b60405180910390fd5b62000184600083836200027660201b60201c565b80600260008282546200019891906200060e565b92505081905550806000808473ffffffffffffffffffffffffffffffffffffffff1673ffffffffffffffffffffffffffffffffffffffff1681526020019081526020016000206000828254620001ef91906200060e565b925050819055508173ffffffffffffffffffffffffffffffffffffffff16600073ffffffffffffffffffffffffffffffffffffffff167fddf252ad1be2c89b69c2b068fc378daa952ba7f163c4a11628f55a4df523b3ef836040516200025691906200067c565b60405180910390a362000272600083836200027b60201b60201c565b5050565b505050565b505050565b8280546200028e90620006c8565b90600052602060002090601f016020900481019282620002b25760008555620002fe565b82601f10620002cd57805160ff1916838001178555620002fe565b82800160010185558215620002fe579182015b82811115620002fd578251825591602001919060010190620002e0565b5b5090506200030d919062000311565b5090565b5b808211156200032c57600081600090555060010162000312565b5090565b6000604051905090565b600080fd5b600080fd5b600080fd5b600080fd5b6000601f19601f8301169050919050565b7f4e487b7100000000000000000000000000000000000000000000000000000000600052604160045260246000fd5b62000399826200034e565b810181811067ffffffffffffffff82111715620003bb57620003ba6200035f565b5b80604052505050565b6000620003d062000330565b9050620003de82826200038e565b919050565b600067ffffffffffffffff8211156200040157620004006200035f565b5b6200040c826200034e565b9050602081019050919050565b60005b83811015620004395780820151818401526020810190506200041c565b8381111562000449576000848401525b50505050565b6000620004666200046084620003e3565b620003c4565b90508281526020810184848401111562000485576200048462000349565b5b6200049284828562000419565b509392505050565b600082601f830112620004b257620004b162000344565b5b8151620004c48482602086016200044f565b91505092915050565b60008060408385031215620004e757620004e66200033a565b5b600083015167ffffffffffffffff8111156200050857620005076200033f565b5b62000516858286016200049a565b925050602083015167ffffffffffffffff8111156200053a57620005396200033f565b5b62000548858286016200049a565b9150509250929050565b600082825260208201905092915050565b7f45524332303a206d696e7420746f20746865207a65726f206164647265737300600082015250565b60006200059b601f8362000552565b9150620005a88262000563565b602082019050919050565b60006020820190508181036000830152620005ce816200058c565b9050919050565b6000819050919050565b7f4e487b7100000000000000000000000000000000000000000000000000000000600052601160045260246000fd5b60006200061b82620005d5565b91506200062883620005d5565b9250827fffffffffffffffffffffffffffffffffffffffffffffffffffffffffffffffff0382111562000660576200065f620005df565b5b828201905092915050565b6200067681620005d5565b82525050565b60006020820190506200069360008301846200066b565b92915050565b7f4e487b7100000000000000000000000000000000000000000000000000000000600052602260045260246000fd5b60006002820490506001821680620006e157607f821691505b60208210811415620006f857620006f762000699565b5b50919050565b6123f3806200070e6000396000f3fe608060405234801561001057600080fd5b50600436106101375760003560e01c8063893d20e8116100b8578063a694fc3a1161007c578063a694fc3a1461038e578063a9059cbb146103be578063aa6ca808146103ee578063dd62ed3e1461040c578063fd8fd47f1461043c578063ff50dd481461045a57610137565b8063893d20e8146102d45780638da5cb5b146102f257806395d89b4114610310578063a457c2d71461032e578063a5cda7641461035e57610137565b80632e17de78116100ff5780632e17de7814610208578063313ce56714610238578063395093511461025657806340490a901461028657806370a08231146102a457610137565b806306fdde031461013c578063095ea7b31461015a578063167653911461018a57806318160ddd146101ba57806323b872dd146101d8575b600080fd5b610144610478565b6040516101519190611725565b60405180910390f35b610174600480360381019061016f91906117e0565b61050a565b604051610181919061183b565b60405180910390f35b6101a4600480360381019061019f9190611856565b610528565b6040516101b19190611892565b60405180910390f35b6101c2610571565b6040516101cf9190611892565b60405180910390f35b6101f260048036038101906101ed91906118ad565b61057b565b6040516101ff919061183b565b60405180910390f35b610222600480360381019061021d9190611900565b610673565b60405161022f919061183b565b60405180910390f35b6102406107c5565b60405161024d9190611949565b60405180910390f35b610270600480360381019061026b91906117e0565b6107ce565b60405161027d919061183b565b60405180910390f35b61028e61087a565b60405161029b9190611892565b60405180910390f35b6102be60048036038101906102b99190611856565b610884565b6040516102cb9190611892565b60405180910390f35b6102dc6108cc565b6040516102e99190611973565b60405180910390f35b6102fa6108f6565b6040516103079190611973565b60405180910390f35b61031861091c565b6040516103259190611725565b60405180910390f35b610348600480360381019061034391906117e0565b6109ae565b604051610355919061183b565b60405180910390f35b61037860048036038101906103739190611856565b610a99565b6040516103859190611892565b60405180910390f35b6103a860048036038101906103a39190611900565b610b15565b6040516103b5919061183b565b60405180910390f35b6103d860048036038101906103d391906117e0565b610c76565b6040516103e5919061183b565b60405180910390f35b6103f6610cdd565b604051610403919061183b565b60405180910390f35b6104266004803603810190610421919061198e565b610cfc565b6040516104339190611892565b60405180910390f35b610444610d83565b6040516104519190611892565b60405180910390f35b610462610d8d565b60405161046f9190611892565b60405180910390f35b606060038054610487906119fd565b80601f01602080910402602001604051908101604052809291908181526020018280546104b3906119fd565b80156105005780601f106104d557610100808354040283529160200191610500565b820191906000526020600020905b8154815290600101906020018083116104e357829003601f168201915b5050505050905090565b600061051e610517610dab565b8484610db3565b6001905092915050565b6000600560008373ffffffffffffffffffffffffffffffffffffffff1673ffffffffffffffffffffffffffffffffffffffff168152602001908152602001600020549050919050565b6000600254905090565b6000610588848484610f7e565b6000600160008673ffffffffffffffffffffffffffffffffffffffff1673ffffffffffffffffffffffffffffffffffffffff16815260200190815260200160002060006105d3610dab565b73ffffffffffffffffffffffffffffffffffffffff1673ffffffffffffffffffffffffffffffffffffffff16815260200190815260200160002054905082811015610653576040517f08c379a000000000000000000000000000000000000000000000000000000000815260040161064a90611aa1565b60405180910390fd5b6106678561065f610dab565b858403610db3565b60019150509392505050565b600033828061068183610528565b10156106c2576040517f08c379a00000000000000000000000000000000000000000000000000000000081526004016106b990611b0d565b60405180910390fd5b61071484600560003373ffffffffffffffffffffffffffffffffffffffff1673ffffffffffffffffffffffffffffffffffffffff168152602001908152602001600020546111ff90919063ffffffff16565b600560003373ffffffffffffffffffffffffffffffffffffffff1673ffffffffffffffffffffffffffffffffffffffff168152602001908152602001600020819055506107616001611215565b50610777846008546111ff90919063ffffffff16565b6008819055506107ba336107b56107a6670de0b6b3a764000061079861087a565b61130990919063ffffffff16565b8761131f90919063ffffffff16565b611335565b600192505050919050565b60006012905090565b60006108706107db610dab565b8484600160006107e9610dab565b73ffffffffffffffffffffffffffffffffffffffff1673ffffffffffffffffffffffffffffffffffffffff16815260200190815260200160002060008873ffffffffffffffffffffffffffffffffffffffff1673ffffffffffffffffffffffffffffffffffffffff1681526020019081526020016000205461086b9190611b5c565b610db3565b6001905092915050565b6000600954905090565b60008060008373ffffffffffffffffffffffffffffffffffffffff1673ffffffffffffffffffffffffffffffffffffffff168152602001908152602001600020549050919050565b6000600a60009054906101000a900473ffffffffffffffffffffffffffffffffffffffff16905090565b600a60009054906101000a900473ffffffffffffffffffffffffffffffffffffffff1681565b60606004805461092b906119fd565b80601f0160208091040260200160405190810160405280929190818152602001828054610957906119fd565b80156109a45780601f10610979576101008083540402835291602001916109a4565b820191906000526020600020905b81548152906001019060200180831161098757829003601f168201915b5050505050905090565b600080600160006109bd610dab565b73ffffffffffffffffffffffffffffffffffffffff1673ffffffffffffffffffffffffffffffffffffffff16815260200190815260200160002060008573ffffffffffffffffffffffffffffffffffffffff1673ffffffffffffffffffffffffffffffffffffffff16815260200190815260200160002054905082811015610a7a576040517f08c379a0000000000000000000000000000000000000000000000000000000008152600401610a7190611c24565b60405180910390fd5b610a8e610a85610dab565b85858403610db3565b600191505092915050565b600080610ab9670de0b6b3a764000060065461130990919063ffffffff16565b9050610b0d81600560008673ffffffffffffffffffffffffffffffffffffffff1673ffffffffffffffffffffffffffffffffffffffff1681526020019081526020016000205461131f90919063ffffffff16565b915050919050565b6000338280610b2383610884565b1015610b64576040517f08c379a0000000000000000000000000000000000000000000000000000000008152600401610b5b90611c90565b60405180910390fd5b610b6e3385611495565b610bc084600560003373ffffffffffffffffffffffffffffffffffffffff1673ffffffffffffffffffffffffffffffffffffffff1681526020019081526020016000205461166c90919063ffffffff16565b600560003373ffffffffffffffffffffffffffffffffffffffff1673ffffffffffffffffffffffffffffffffffffffff16815260200190815260200160002081905550610c0d6000611215565b50610c238460085461166c90919063ffffffff16565b6008819055507f2c5661ed6b4853d3121c31ba3030dcca726029280495b1e64b7da6645779051a8433610c5461087a565b604051610c6393929190611cb0565b60405180910390a1600192505050919050565b6000610c826001611215565b50610c95610c8e610dab565b8484610f7e565b7fded8094fdd7b4e8677daa7fb2b3e8298e2a951cafd008f985db638b8a0e6e81c610cbe61087a565b604051610ccb9190611892565b60405180910390a16001905092915050565b6000610cea336064611335565b610cf46001611215565b506001905090565b6000600160008473ffffffffffffffffffffffffffffffffffffffff1673ffffffffffffffffffffffffffffffffffffffff16815260200190815260200160002060008373ffffffffffffffffffffffffffffffffffffffff1673ffffffffffffffffffffffffffffffffffffffff16815260200190815260200160002054905092915050565b6000600854905090565b6000610da660065460085461131f90919063ffffffff16565b905090565b600033905090565b600073ffffffffffffffffffffffffffffffffffffffff168373ffffffffffffffffffffffffffffffffffffffff161415610e23576040517f08c379a0000000000000000000000000000000000000000000000000000000008152600401610e1a90611d59565b60405180910390fd5b600073ffffffffffffffffffffffffffffffffffffffff168273ffffffffffffffffffffffffffffffffffffffff161415610e93576040517f08c379a0000000000000000000000000000000000000000000000000000000008152600401610e8a90611deb565b60405180910390fd5b80600160008573ffffffffffffffffffffffffffffffffffffffff1673ffffffffffffffffffffffffffffffffffffffff16815260200190815260200160002060008473ffffffffffffffffffffffffffffffffffffffff1673ffffffffffffffffffffffffffffffffffffffff168152602001908152602001600020819055508173ffffffffffffffffffffffffffffffffffffffff168373ffffffffffffffffffffffffffffffffffffffff167f8c5be1e5ebec7d5bd14f71427d1e84f3dd0314c0f7b2291e5b200ac8c7c3b92583604051610f719190611892565b60405180910390a3505050565b600073ffffffffffffffffffffffffffffffffffffffff168373ffffffffffffffffffffffffffffffffffffffff161415610fee576040517f08c379a0000000000000000000000000000000000000000000000000000000008152600401610fe590611e7d565b60405180910390fd5b600073ffffffffffffffffffffffffffffffffffffffff168273ffffffffffffffffffffffffffffffffffffffff16141561105e576040517f08c379a000000000000000000000000000000000000000000000000000000000815260040161105590611f0f565b60405180910390fd5b611069838383611682565b60008060008573ffffffffffffffffffffffffffffffffffffffff1673ffffffffffffffffffffffffffffffffffffffff168152602001908152602001600020549050818110156110ef576040517f08c379a00000000000000000000000000000000000000000000000000000000081526004016110e690611fa1565b60405180910390fd5b8181036000808673ffffffffffffffffffffffffffffffffffffffff1673ffffffffffffffffffffffffffffffffffffffff16815260200190815260200160002081905550816000808573ffffffffffffffffffffffffffffffffffffffff1673ffffffffffffffffffffffffffffffffffffffff16815260200190815260200160002060008282546111829190611b5c565b925050819055508273ffffffffffffffffffffffffffffffffffffffff168473ffffffffffffffffffffffffffffffffffffffff167fddf252ad1be2c89b69c2b068fc378daa952ba7f163c4a11628f55a4df523b3ef846040516111e69190611892565b60405180910390a36111f9848484611687565b50505050565b6000818361120d9190611fc1565b905092915050565b6000811561123e57611233600160095461166c90919063ffffffff16565b600981905550611274565b6000600954111561126a5761125f60016009546111ff90919063ffffffff16565b600981905550611273565b60009050611304565b5b600066271471148780009050600064199c82cc0090506112ab600260095461129c9190612128565b8361131f90919063ffffffff16565b91506112ce60036009546112bf9190612128565b8261131f90919063ffffffff16565b90506112f7816112e98460075461166c90919063ffffffff16565b61166c90919063ffffffff16565b6006819055506001925050505b919050565b6000818361131791906121a2565b905092915050565b6000818361132d91906121d3565b905092915050565b600073ffffffffffffffffffffffffffffffffffffffff168273ffffffffffffffffffffffffffffffffffffffff1614156113a5576040517f08c379a000000000000000000000000000000000000000000000000000000000815260040161139c90612279565b60405180910390fd5b6113b160008383611682565b80600260008282546113c39190611b5c565b92505081905550806000808473ffffffffffffffffffffffffffffffffffffffff1673ffffffffffffffffffffffffffffffffffffffff16815260200190815260200160002060008282546114189190611b5c565b925050819055508173ffffffffffffffffffffffffffffffffffffffff16600073ffffffffffffffffffffffffffffffffffffffff167fddf252ad1be2c89b69c2b068fc378daa952ba7f163c4a11628f55a4df523b3ef8360405161147d9190611892565b60405180910390a361149160008383611687565b5050565b600073ffffffffffffffffffffffffffffffffffffffff168273ffffffffffffffffffffffffffffffffffffffff161415611505576040517f08c379a00000000000000000000000000000000000000000000000000000000081526004016114fc9061230b565b60405180910390fd5b61151182600083611682565b60008060008473ffffffffffffffffffffffffffffffffffffffff1673ffffffffffffffffffffffffffffffffffffffff16815260200190815260200160002054905081811015611597576040517f08c379a000000000000000000000000000000000000000000000000000000000815260040161158e9061239d565b60405180910390fd5b8181036000808573ffffffffffffffffffffffffffffffffffffffff1673ffffffffffffffffffffffffffffffffffffffff1681526020019081526020016000208190555081600260008282546115ee9190611fc1565b92505081905550600073ffffffffffffffffffffffffffffffffffffffff168373ffffffffffffffffffffffffffffffffffffffff167fddf252ad1be2c89b69c2b068fc378daa952ba7f163c4a11628f55a4df523b3ef846040516116539190611892565b60405180910390a361166783600084611687565b505050565b6000818361167a9190611b5c565b905092915050565b505050565b505050565b600081519050919050565b600082825260208201905092915050565b60005b838110156116c65780820151818401526020810190506116ab565b838111156116d5576000848401525b50505050565b6000601f19601f8301169050919050565b60006116f78261168c565b6117018185611697565b93506117118185602086016116a8565b61171a816116db565b840191505092915050565b6000602082019050818103600083015261173f81846116ec565b905092915050565b600080fd5b600073ffffffffffffffffffffffffffffffffffffffff82169050919050565b60006117778261174c565b9050919050565b6117878161176c565b811461179257600080fd5b50565b6000813590506117a48161177e565b92915050565b6000819050919050565b6117bd816117aa565b81146117c857600080fd5b50565b6000813590506117da816117b4565b92915050565b600080604083850312156117f7576117f6611747565b5b600061180585828601611795565b9250506020611816858286016117cb565b9150509250929050565b60008115159050919050565b61183581611820565b82525050565b6000602082019050611850600083018461182c565b92915050565b60006020828403121561186c5761186b611747565b5b600061187a84828501611795565b91505092915050565b61188c816117aa565b82525050565b60006020820190506118a76000830184611883565b92915050565b6000806000606084860312156118c6576118c5611747565b5b60006118d486828701611795565b93505060206118e586828701611795565b92505060406118f6868287016117cb565b9150509250925092565b60006020828403121561191657611915611747565b5b6000611924848285016117cb565b91505092915050565b600060ff82169050919050565b6119438161192d565b82525050565b600060208201905061195e600083018461193a565b92915050565b61196d8161176c565b82525050565b60006020820190506119886000830184611964565b92915050565b600080604083850312156119a5576119a4611747565b5b60006119b385828601611795565b92505060206119c485828601611795565b9150509250929050565b7f4e487b7100000000000000000000000000000000000000000000000000000000600052602260045260246000fd5b60006002820490506001821680611a1557607f821691505b60208210811415611a2957611a286119ce565b5b50919050565b7f45524332303a207472616e7366657220616d6f756e742065786365656473206160008201527f6c6c6f77616e6365000000000000000000000000000000000000000000000000602082015250565b6000611a8b602883611697565b9150611a9682611a2f565b604082019050919050565b60006020820190508181036000830152611aba81611a7e565b9050919050565b7f496e73756666696369656e74205374616b65642042616c616e63650000000000600082015250565b6000611af7601b83611697565b9150611b0282611ac1565b602082019050919050565b60006020820190508181036000830152611b2681611aea565b9050919050565b7f4e487b7100000000000000000000000000000000000000000000000000000000600052601160045260246000fd5b6000611b67826117aa565b9150611b72836117aa565b9250827fffffffffffffffffffffffffffffffffffffffffffffffffffffffffffffffff03821115611ba757611ba6611b2d565b5b828201905092915050565b7f45524332303a2064656372656173656420616c6c6f77616e63652062656c6f7760008201527f207a65726f000000000000000000000000000000000000000000000000000000602082015250565b6000611c0e602583611697565b9150611c1982611bb2565b604082019050919050565b60006020820190508181036000830152611c3d81611c01565b9050919050565b7f496e73756666696369656e7420556e7374616b65642042616c616e6365000000600082015250565b6000611c7a601d83611697565b9150611c8582611c44565b602082019050919050565b60006020820190508181036000830152611ca981611c6d565b9050919050565b6000606082019050611cc56000830186611883565b611cd26020830185611964565b611cdf6040830184611883565b949350505050565b7f45524332303a20617070726f76652066726f6d20746865207a65726f2061646460008201527f7265737300000000000000000000000000000000000000000000000000000000602082015250565b6000611d43602483611697565b9150611d4e82611ce7565b604082019050919050565b60006020820190508181036000830152611d7281611d36565b9050919050565b7f45524332303a20617070726f766520746f20746865207a65726f20616464726560008201527f7373000000000000000000000000000000000000000000000000000000000000602082015250565b6000611dd5602283611697565b9150611de082611d79565b604082019050919050565b60006020820190508181036000830152611e0481611dc8565b9050919050565b7f45524332303a207472616e736665722066726f6d20746865207a65726f20616460008201527f6472657373000000000000000000000000000000000000000000000000000000602082015250565b6000611e67602583611697565b9150611e7282611e0b565b604082019050919050565b60006020820190508181036000830152611e9681611e5a565b9050919050565b7f45524332303a207472616e7366657220746f20746865207a65726f206164647260008201527f6573730000000000000000000000000000000000000000000000000000000000602082015250565b6000611ef9602383611697565b9150611f0482611e9d565b604082019050919050565b60006020820190508181036000830152611f2881611eec565b9050919050565b7f45524332303a207472616e7366657220616d6f756e742065786365656473206260008201527f616c616e63650000000000000000000000000000000000000000000000000000602082015250565b6000611f8b602683611697565b9150611f9682611f2f565b604082019050919050565b60006020820190508181036000830152611fba81611f7e565b9050919050565b6000611fcc826117aa565b9150611fd7836117aa565b925082821015611fea57611fe9611b2d565b5b828203905092915050565b60008160011c9050919050565b6000808291508390505b600185111561204c5780860481111561202857612027611b2d565b5b60018516156120375780820291505b808102905061204585611ff5565b945061200c565b94509492505050565b6000826120655760019050612121565b816120735760009050612121565b81600181146120895760028114612093576120c2565b6001915050612121565b60ff8411156120a5576120a4611b2d565b5b8360020a9150848211156120bc576120bb611b2d565b5b50612121565b5060208310610133831016604e8410600b84101617156120f75782820a9050838111156120f2576120f1611b2d565b5b612121565b6121048484846001612002565b9250905081840481111561211b5761211a611b2d565b5b81810290505b9392505050565b6000612133826117aa565b915061213e8361192d565b925061216b7fffffffffffffffffffffffffffffffffffffffffffffffffffffffffffffffff8484612055565b905092915050565b7f4e487b7100000000000000000000000000000000000000000000000000000000600052601260045260246000fd5b60006121ad826117aa565b91506121b8836117aa565b9250826121c8576121c7612173565b5b828204905092915050565b60006121de826117aa565b91506121e9836117aa565b9250817fffffffffffffffffffffffffffffffffffffffffffffffffffffffffffffffff048311821515161561222257612221611b2d565b5b828202905092915050565b7f45524332303a206d696e7420746f20746865207a65726f206164647265737300600082015250565b6000612263601f83611697565b915061226e8261222d565b602082019050919050565b6000602082019050818103600083015261229281612256565b9050919050565b7f45524332303a206275726e2066726f6d20746865207a65726f2061646472657360008201527f7300000000000000000000000000000000000000000000000000000000000000602082015250565b60006122f5602183611697565b915061230082612299565b604082019050919050565b60006020820190508181036000830152612324816122e8565b9050919050565b7f45524332303a206275726e20616d6f756e7420657863656564732062616c616e60008201527f6365000000000000000000000000000000000000000000000000000000000000602082015250565b6000612387602283611697565b91506123928261232b565b604082019050919050565b600060208201905081810360008301526123b68161237a565b905091905056fea264697066735822122066bfd514fb09166fe26ca332d8106c9473141ee0a936d78a9c7a38be8b1f4ded64736f6c63430008090033",
  "immutableReferences": {},
  "source": "pragma solidity ^0.8.9;\n\nimport \"@openzeppelin/contracts/token/ERC20/ERC20.sol\";\nimport \"@openzeppelin/contracts/token/ERC20/IERC20.sol\";\nimport \"@openzeppelin/contracts/utils/math/SafeMath.sol\";\n\n\n// @title: Virtual Token - Final Project\n// @author: Christian Murray\ncontract VirtualToken is ERC20 {\n\t// SafeMath prevents attackers from manipulating integer overflows in math operations to exploit the contract\n\t// (attack vector one)\n\tusing SafeMath for uint;\n\t// data structures\n\t// mirroring the structure of ERC20 from OZ where the balance map is private\n\tmapping (address => uint256) private _stakedBalances;\n\tuint private a;\n\tuint private baseA;\n\t// these are the deltas that impact the multiplier a\n\tuint totalStaked;\n\tuint eventCount;\n\t\n\t// who owns the contract\n\taddress public owner;\n\n\t// using these modifiers prevents minting tokens that a user does not have (attack vector 2)\n\tmodifier sufficientUnstakedBalance(address _act, uint _amt) {\n\t\trequire(balanceOf(_act) >= _amt, \"Insufficient Unstaked Balance\");\n\t\t_;\n\t}\n\n\t// this should do math to check the virtual balance not the raw balance\n\tmodifier sufficientStakedBalance(address _act, uint _amt) {\n\t\trequire(stakedBalanceOf(_act) >= _amt, \"Insufficient Staked Balance\");\n\t\t_;\n\t}\n\n\tevent StakeEvent(uint256 amt, address staker, uint newA);\n\t//\tUnstakeEvent\n\n\t//TODO: add frontend integration for tracking events and updating the page\t\n\tevent UnstakeEvent(uint256 amt, address unstaker, uint newA);\n\n\tevent NewMultiplierEvent(uint256 newA);\n\n\t// functions\n\tconstructor(string memory name_,\n\t\t   string memory symbol_)\n\tERC20(name_, symbol_) {\n\t\towner = msg.sender;\n\t\ta = 1010000000000000000;\n\t\tbaseA = 1010000000000000000;\n\t\ttotalStaked = 0;\n\t\teventCount = 0;\n\t\tuint256 totalSupply = 100;\n\t\t_mint(msg.sender,totalSupply); \n\t}\n\n        //@notice Returns the balance of the user that is in staking mapping\n\t//@param account address\n\t//@return staked balance raw\n\tfunction stakedBalanceOf(address act) public view returns (uint256) {\n\t\treturn _stakedBalances[act];\n\t}\n\n        //@notice Returns the virtual staked balance that is in the staking mapping, or above x a\n\t//@param account address\n\t//@return virtual staked balance\n\tfunction stakedVirtualBalanceOf(address act) public view returns (uint256) {\n\t\tuint aTruncated = a.div(10**18);\n\t\treturn _stakedBalances[act].mul(aTruncated);\n\t}\n\n\t\n\t//@notice Makes a change to the global multiplier\n        //@dev If _increase == true, then it is a positive change, if false then it is a decrease\n\t//@param increase or decrease, expressed as bool\n\t//@return true\n\tfunction modifyMultiplier(bool _increase) private returns (bool) {\n\t\t// code to change the multiplier value\n\t\tif (_increase) {\n\t\t\teventCount = eventCount.add(1);\n\t\t} else {\n\t\t\tif (eventCount > 0) {\t\n\t\t\t\teventCount = eventCount.sub(1);\t\n\t\t\t} else {\n\t\t\t\treturn false;\n\t\t\t}\n\t\t}\n\t\t// we are going to assume that a is represented as an 18 digit decimal\n\t\t// to iterate we do the function y = 1.01 + 0.0011x + 0.00011x^2 + 0.0000001x^3\n\t\tuint t1 = 11000000000000000;\n\t\tuint t2 = 110000000000;\n\t\tt1 = t1.mul(eventCount**2);\n\t\tt2 = t2.mul(eventCount**3);\n\t\ta = baseA.add(t1).add(t2);\n\t\treturn true;\n\t}\n\n\t//@notice Move tokens from the _balances mapping to the staked balance mapping\n\t//@param amount to stake\n\t//@return true\n\tfunction stake(uint _amt) public sufficientUnstakedBalance(msg.sender, _amt) returns (bool) {\n\t\t_burn(msg.sender, _amt);\n\t\t_stakedBalances[msg.sender] = _stakedBalances[msg.sender].add(_amt);\n\t\t// decrease the multiplier\n\t\tmodifyMultiplier(false);\n\t\ttotalStaked = totalStaked.add(_amt);\n\t\t// increase the event count to increase a\n\t\temit StakeEvent(_amt, msg.sender, getMultiplier());\n\t\treturn true;\n\t}\n\n\t//@notice Move tokens from the staked balance mapping to the regular _balances mapping\n        //@dev Accrue the virtual yield gains to the user's wallet\n\t//@param amount to unstake\n\t//@return true\n\tfunction unstake(uint _amt) public sufficientStakedBalance(msg.sender, _amt) returns (bool) {\n\t\t_stakedBalances[msg.sender] = _stakedBalances[msg.sender].sub(_amt);\n\t\tmodifyMultiplier(true);\n\t\ttotalStaked = totalStaked.sub(_amt);\n\t\t_mint(msg.sender, _amt.mul(getMultiplier().div(10**18)));\n\t\treturn true;\t\n\t}\n\n\t//@notice Need to override transfer to add the custom multiplier increase behavior\n\t//@param address of the recipient and amount to transfer\n\t//@return true\n\tfunction transfer(address recipient, uint256 amount) public override returns (bool) {\n\t\t//increase the multiplier\n\t\tmodifyMultiplier(true);\n\t\t_transfer(_msgSender(), recipient, amount);\n\t\temit NewMultiplierEvent(getMultiplier());\n\t\treturn true;\n\t}\n\n\t//@notice Get the global staked balance within the protocol\n\t//@return the total amount staked\n\tfunction getTotalStakedBalance() public view returns (uint) {\n\t\treturn totalStaked;\n\t}\n\n\t//@notice Get the total staked balance within the protocol in virtual terms\n\t//@return a user's virtual balance\n\tfunction getTotalVirtualStakeBalance() public view returns (uint) {\n\t\treturn totalStaked.mul(a);\n\t}\t\n\n\t//@notice Get the multiplier a\n\t//@return the current number of interactions this smart contract has had, for calculating a\n\tfunction getMultiplier() public view returns (uint) {\n\t\treturn eventCount;\n\t}\n\n\t//@notice Mint tokens for testing purposes\n\t//@return true if successful\n        function getTokens() public returns (bool) {\n\t\t_mint(msg.sender, 100);\n\t\tmodifyMultiplier(true);\n\t\treturn true;\n\t}\n\n\t// to consider:\n\t// add ownability, and allow for the changing of parameters by the admin\n\n\t//@notice Get the current owner of the contract\n\t//@return the deployer of the contract\n        function getOwner() public view returns (address) {\n\t\treturn owner;\n\t}\n}\n\n",
  "sourcePath": "/Users/christian/consensys/blockchain-developer-bootcamp-final-project/contracts/VirtualToken.sol",
  "compiler": {
    "name": "solc",
    "version": "0.8.9+commit.e5eed63a.Emscripten.clang"
  },
  "schemaVersion": "3.4.3",
  "updatedAt": "2021-11-30T15:54:54.250Z",
  "devdoc": {
    "kind": "dev",
    "methods": {
      "allowance(address,address)": {
        "details": "See {IERC20-allowance}."
      },
      "approve(address,uint256)": {
        "details": "See {IERC20-approve}. Requirements: - `spender` cannot be the zero address."
      },
      "balanceOf(address)": {
        "details": "See {IERC20-balanceOf}."
      },
      "decimals()": {
        "details": "Returns the number of decimals used to get its user representation. For example, if `decimals` equals `2`, a balance of `505` tokens should be displayed to a user as `5.05` (`505 / 10 ** 2`). Tokens usually opt for a value of 18, imitating the relationship between Ether and Wei. This is the value {ERC20} uses, unless this function is overridden; NOTE: This information is only used for _display_ purposes: it in no way affects any of the arithmetic of the contract, including {IERC20-balanceOf} and {IERC20-transfer}."
      },
      "decreaseAllowance(address,uint256)": {
        "details": "Atomically decreases the allowance granted to `spender` by the caller. This is an alternative to {approve} that can be used as a mitigation for problems described in {IERC20-approve}. Emits an {Approval} event indicating the updated allowance. Requirements: - `spender` cannot be the zero address. - `spender` must have allowance for the caller of at least `subtractedValue`."
      },
      "increaseAllowance(address,uint256)": {
        "details": "Atomically increases the allowance granted to `spender` by the caller. This is an alternative to {approve} that can be used as a mitigation for problems described in {IERC20-approve}. Emits an {Approval} event indicating the updated allowance. Requirements: - `spender` cannot be the zero address."
      },
      "name()": {
        "details": "Returns the name of the token."
      },
      "symbol()": {
        "details": "Returns the symbol of the token, usually a shorter version of the name."
      },
      "totalSupply()": {
        "details": "See {IERC20-totalSupply}."
      },
      "transfer(address,uint256)": {
        "details": "See {IERC20-transfer}. Requirements: - `recipient` cannot be the zero address. - the caller must have a balance of at least `amount`."
      },
      "transferFrom(address,address,uint256)": {
        "details": "See {IERC20-transferFrom}. Emits an {Approval} event indicating the updated allowance. This is not required by the EIP. See the note at the beginning of {ERC20}. Requirements: - `sender` and `recipient` cannot be the zero address. - `sender` must have a balance of at least `amount`. - the caller must have allowance for ``sender``'s tokens of at least `amount`."
      }
    },
    "version": 1
  },
  "userdoc": {
    "kind": "user",
    "methods": {},
    "version": 1
  }
}